:0400000007EF00F016
:0A0008007D821EED0AF0A2EF13F056
:101000000054656D70657261747572653A0025698A
:1010100000001350800B1C6E13501324226E12AE6E
:1010200014EF08F016EF08F017EF08F022802250B6
:10103000D8B41DEF08F01FEF08F032EF08F02228B7
:10104000D8A425EF08F027EF08F02FEF08F0000EE6
:10105000106E000E116E000E126E000E136E128EC8
:101060003AEF08F0000E106E000E116E000E126EB8
:10107000000E136E1750800B1C1A17501724216E88
:1010800016AE45EF08F047EF08F048EF08F0218072
:101090002150D8B44EEF08F050EF08F063EF08F09D
:1010A0002128D8A456EF08F058EF08F060EF08F0B8
:1010B000000E146E000E156E000E166E000E176EEA
:1010C000168E6BEF08F0000E146E000E156E000EFB
:1010D000166E000E176E2150D8B471EF08F073EF42
:1010E00008F07BEF08F02250D8A479EF08F07BEFEE
:1010F00008F085EF08F0000E106E000E116E000E65
:10110000126E000E136E1DEF0AF016501002F3CF90
:1011100027F0F4CF28F027501D6E1E6A1F6A206A40
:101120002850236E246A256A266A15501102F3CFCF
:1011300027F0F4CF28F027501D26000E1E221F2274
:10114000202228502326000E242225222622145055
:101150001202F3CF27F0F4CF28F027501D26000EFF
:101160001E221F22202228502326000E2422252260
:1011700026221FC020F01EC01FF01DC01EF01D6AD9
:1011800014501102F3CF27F0F4CF28F027501D267A
:1011900028501E22000E1F22000E20221550100281
:1011A000F3CF27F0F4CF28F027501D2628501E2219
:1011B000000E1F22000E20221FC020F01EC01FF0B4
:1011C0001DC01EF01D6A14501002F3CF27F0F4CF9B
:1011D00028F027501D2628501E22000E1F22000E28
:1011E000202216501102F3CF27F0F4CF28F0275019
:1011F000232628502422000E2522000E26221550D8
:101200001202F3CF27F0F4CF28F0275023262850DE
:101210002422000E2522000E262216501202F3CFA1
:1012200027F0F4CF28F02750186E2850196E1A6A4C
:101230001B6A1AC01BF019C01AF018C019F0186AFE
:1012400018502326195024221A5025221B502622DA
:101250001DC018F01EC019F01FC01AF020C01BF0EE
:10126000190E38EF09F0D8901B321A3219321832A1
:10127000E82E33EF09F018502326195024221A5073
:1012800025221B5026221FC020F01EC01FF01DC0AB
:101290001EF01D6A215022C018F0196A1826000E8F
:1012A0001922820E1824276EFF0E1920286E6EEF69
:1012B00009F0D890233624362536263620AE63EF43
:1012C00009F065EF09F066EF09F02380D8901D362C
:1012D0001E361F3620362706D8A0280625AE73EF07
:1012E00009F075EF09F059EF09F0000E216E20AEFC
:1012F0007CEF09F07EEF09F0A2EF09F0FF0E1D145C
:10130000186EFF0E1E14196EFF0E1F141A6E7F0E3C
:1013100020141B6E185019101A101B10D8B493EF1C
:1013200009F095EF09F099EF09F0010E216EA2EF97
:1013300009F023A09EEF09F0A0EF09F0A2EF09F059
:1013400095EF09F02150D8B4A8EF09F0AAEF09F001
:10135000CEEF09F0010E2326000E2422252226229C
:1013600026A0B5EF09F0B7EF09F0CEEF09F023C0E2
:1013700018F024C019F025C01AF026C01BF01B3449
:101380001B321A321932183218C023F019C024F057
:101390001AC025F01BC026F0274A282A28BED9EFFC
:1013A00009F0285008E12728D8A0D9EF09F0DBEF91
:1013B00009F0E5EF09F0000E236E000E246E800E9A
:1013C000256E7F0E266E13EF0AF028BEF2EF09F0AD
:1013D000285006E12704D8B0F0EF09F0F2EF09F049
:1013E000FEEF09F0000E236E000E246E000E256E37
:1013F000000E266E000E1C6E13EF0AF027C022F0BE
:10140000FF0E2316FF0E24167F0E2516000E26163D
:1014100022A00DEF0AF00FEF0AF010EF0AF0258E70
:10142000D8902230266E1C50261223C010F024C003
:1014300011F025C012F026C013F012000600F2A829
:1014400024EF0AF026EF0AF02FEF0AF0F2A22BEFBA
:101450000AF02DEF0AF02FEF0AF029EC15F0F0A6B4
:1014600034EF0AF036EF0AF03FEF0AF0F0A03BEF5E
:101470000AF03DEF0AF03FEF0AF027EC15F0F0A874
:1014800044EF0AF046EF0AF04FEF0AF0F0A24BEFFC
:101490000AF04DEF0AF04FEF0AF025EC15F09DAC85
:1014A00054EF0AF056EF0AF05FEF0AF09EAC5BEFE4
:1014B0000AF05DEF0AF05FEF0AF02BEC15F0F2A6F0
:1014C00064EF0AF066EF0AF081EF0AF0F2A06BEF2A
:1014D0000AF06DEF0AF081EF0AF081A872EF0AF0CE
:1014E00074EF0AF081EF0AF07204D8A47AEF0AF0E0
:1014F0007CEF0AF081EF0AF0000E726E000E18EC1D
:1015000015F0F2A686EF0AF088EF0AF0A3EF0AF0D2
:10151000F2A08DEF0AF08FEF0AF0A3EF0AF081B886
:1015200094EF0AF096EF0AF0A3EF0AF07250D8A4F5
:101530009CEF0AF09EEF0AF0A3EF0AF0010E726E24
:10154000010E18EC15F0F2A6A8EF0AF0AAEF0AF0C7
:10155000C5EF0AF0F2A0AFEF0AF0B1EF0AF0C5EF65
:101560000AF081AAB6EF0AF0B8EF0AF0C5EF0AF068
:101570007104D8A4BEEF0AF0C0EF0AF0C5EF0AF07C
:10158000000E716E000E0BEC15F0F2A6CAEF0AF019
:10159000CCEF0AF0E7EF0AF0F2A0D1EF0AF0D3EFB8
:1015A0000AF0E7EF0AF081BAD8EF0AF0DAEF0AF0B2
:1015B000E7EF0AF07150D8A4E0EF0AF0E2EF0AF08A
:1015C000E7EF0AF0010E716E010E0BEC15F0F2A6BA
:1015D000ECEF0AF0EEEF0AF009EF0BF0F2A0F3EFF8
:1015E0000AF0F5EF0AF009EF0BF081ACFAEF0AF020
:1015F000FCEF0AF009EF0BF07004D8A402EF0BF037
:1016000004EF0BF009EF0BF0000E706E000EFEEC15
:1016100014F0F2A60EEF0BF010EF0BF02BEF0BF027
:10162000F2A015EF0BF017EF0BF02BEF0BF081BCD6
:101630001CEF0BF01EEF0BF02BEF0BF07050D8A44B
:1016400024EF0BF026EF0BF02BEF0BF0010E706E7A
:10165000010EFEEC14F0F2A630EF0BF032EF0BF0BF
:101660004DEF0BF0F2A037EF0BF039EF0BF04DEF31
:101670000BF081AE3EEF0BF040EF0BF04DEF0BF0B7
:101680006F04D8A446EF0BF048EF0BF04DEF0BF0D2
:10169000000E6F6E000EF1EC14F0F2A652EF0BF09C
:1016A00054EF0BF06FEF0BF0F2A059EF0BF05BEF84
:1016B0000BF06FEF0BF081BE60EF0BF062EF0BF001
:1016C0006FEF0BF06F50D8A468EF0BF06AEF0BF0E0
:1016D0006FEF0BF0010E6F6E010EF1EC14F07D92C6
:1016E00011001250D8A477EF0BF079EF0BF07DEFDB
:1016F0000BF0000E146E97EF0CF012C002F036ECF7
:101700000EF0146E12C002F01250D96EDA6A000E9A
:10171000DFBE010E036EC9EC0EF0146E1228026ECD
:1017200036EC0EF0146E1228026E1250D96EDA6A80
:10173000010ED926000EDFBE010E036EC9EC0EF0BD
:10174000146E1250020F026E36EC0EF0146E125030
:10175000030F026E36EC0EF0146E1250040F026E80
:1017600036EC0EF0146E1250050F026E36EC0EF0D1
:10177000146E1250060F026E36EC0EF0146E1250FC
:10178000070F026E36EC0EF0146E1250080F026E48
:1017900036EC0EF0146E1250090F026E36EC0EF09D
:1017A000146E1250020F026E1250D96EDA6A020ED7
:1017B000D926000EDFBE010E036EC9EC0EF0146ECA
:1017C0001250030F026E1250D96EDA6A030ED92638
:1017D000000EDFBE010E036EC9EC0EF0146E125047
:1017E000040F026E1250D96EDA6A040ED926000E6A
:1017F000DFBE010E036EC9EC0EF0146E1250050F21
:10180000026E1250D96EDA6A050ED926000EDFBEBE
:10181000010E036EC9EC0EF0146E1250060F026E2C
:101820001250D96EDA6A060ED926000EDFBE010EFE
:10183000036EC9EC0EF0146E1250070F026E1250B8
:10184000D96EDA6A070ED926000EDFBE010E036ECE
:10185000C9EC0EF0146E1250080F026E1250D96EC1
:10186000DA6A080ED926000EDFBE010E036EC9EC3F
:101870000EF0146E1250090F026E1250D96EDA6A11
:10188000090ED926000EDFBE010E036EC9EC0EF064
:10189000146E340E136EF20EE82EFED7132EFCD704
:1018A00012C00CF0380E0D6EC6EC12F00D0E136E59
:1018B000FC0EE82EFED7132EFCD712C00CF0380E0B
:1018C0000D6EC6EC12F0640EE82EFED712C00CF0BE
:1018D000380E0D6EC6EC12F0146E12C00CF0010E34
:1018E0000D6EC6EC12F0146E12C00CF0020E0D6EEE
:1018F000C6EC12F0146E12C00CF0060E0D6EC6ECA3
:1019000012F0146E12C00CF00C0E0D6EC6EC12F03C
:10191000146E12C00CF0380E0D6EC6EC12F0146E80
:1019200012C00CF0800E0D6EC6EC12F0146E145046
:1019300012000A6E0A50D8B4A0EF0CF0A2EF0CF01F
:10194000C4EF0CF005BEA9EF0CF0A7EF0CF0C4EF4C
:101950000CF002C006F003C007F004C008F005C098
:1019600009F0061E071E081E091E062A000E072281
:101970000822092206C00CF007C00DF008C00EF0C6
:1019800009C00FF0CCEF0CF002C00CF003C00DF05A
:1019900004C00EF005C00FF0025003100410051033
:1019A000D8A4D5EF0CF0D7EF0CF0E1EF0CF0000E5F
:1019B000026E000E036E000E046E000E056E72EFD6
:1019C0000DF0960E0B6EEBEF0CF00B2AD8900F3249
:1019D0000E320D320C32000E0C14066E000E0D1479
:1019E000076E000E0E14086EFE0E0F14096E0650E0
:1019F000071008100910D8A400EF0DF002EF0DF049
:101A0000E5EF0CF010EF0DF00B2A010E0C26000E86
:101A10000D220E220F22D8900F320E320D320C32D0
:101A2000000E0C14066E000E0D14076E000E0E1440
:101A3000086EFF0E0F14096E0650071008100910EB
:101A4000D8A425EF0DF027EF0DF004EF0DF02FEFE8
:101A50000DF00B06D8900C360D360E360F360EBE36
:101A600034EF0DF036EF0DF03EEF0DF0020E0B608F
:101A70003CEF0DF03EEF0DF029EF0DF00BB043EF12
:101A80000DF045EF0DF046EF0DF00E9ED8900B32A5
:101A90000BC006F0076A086A096A06C009F0086AFE
:101AA000076A066A06500C1207500D1208500E12F3
:101AB00009500F120A50D8B460EF0DF062EF0DF02C
:101AC0006AEF0DF005BE69EF0DF067EF0DF06AEFFC
:101AD0000DF00F8E0CC002F00DC003F00EC004F02C
:101AE0000FC005F012008A0E126E71EC0BF00001AF
:101AF000A86F940E056E35EC12F00001A86F8A0EE7
:101B0000186E010E196E010E1A6E010E1B6E03EC9B
:101B100014F00001A86F750E0A6ED5EC0FF00001ED
:101B2000A86F730E0A6ED5EC0FF00001A86F940E2B
:101B3000096E000E0A6E7B0E0B6ED3EC13F00001E3
:101B4000A86F900E146EC10E156EF90E166E3E0E35
:101B5000176E7BC002F07CC003F0046A056A000EB9
:101B600099EC0CF002C010F003C011F004C012F0A8
:101B700005C013F009EC08F010C029F011C02AF0DC
:101B800012C02BF013C02CF051EC0FF029C07BF0E9
:101B90002AC07CF07BC002F07CC003F0000E056E12
:101BA0000A0E046E01EC13F0300E0224796E000E62
:101BB00003207A6E7BC002F07CC003F0000E056E3D
:101BC0000A0E046E70EC13F0300E0224776E000ED5
:101BD0000320786E8A0E186E010E196E0D0E1A6EA5
:101BE00079C01BF08AEC14F08A0E186E010E196E83
:101BF0000E0E1A6E77C01BF08AEC14F08A0E186E67
:101C0000010E196E0F0E1A6E430E1B6E8AEC14F045
:101C10007C5007E1140E7B5CD8B011EF0EF013EF8F
:101C20000EF019EF0EF0750E0A6E1CEC11F097EF26
:101C30000DF07C5009E11F0E7B5CD8A022EF0EF066
:101C400024EF0EF02AEF0EF0730E0A6E1CEC11F06A
:101C500097EF0DF0730E0A6EB7EC10F0750E0A6E6A
:101C6000B7EC10F097EF0DF007EF00F0010E086EE3
:101C70000250D8B43EEF0EF040EF0EF050EF0EF0F1
:101C80000250D96EDA6ADF30E832E832070B036EB1
:101C9000070E03644EEF0EF050EF0EF0A7EF0EF0BC
:101CA000000E086EC7EF0EF00250D96EDA6ADF3010
:101CB000E832E832070B036E010E046E032A63EF6D
:101CC0000EF0D8900436032E61EF0EF00450FF0A98
:101CD000056E0250D96EDA6ADF50070B020DF35021
:101CE000650FD96EDA6ADECF06F0DDCF07F006C0E9
:101CF000D9FF07C0DAFF0550DF16C7EF0EF002501C
:101D0000D96EDA6ADF30E832E832070B036E010E73
:101D1000046E032A8EEF0EF0D8900436032E8CEF5B
:101D20000EF00250D96EDA6ADF50070B020DF35045
:101D3000650FD96EDA6ADECF05F0DDCF06F005C09B
:101D4000D9FF06C0DAFF0450DF12C7EF0EF00250D1
:101D5000D96EDA6ADFBCAFEF0EF0B2EF0EF0010E13
:101D6000B3EF0EF0000E036E046A0450000AD8B4FC
:101D7000BCEF0EF050EF0EF00350000AD8B454EF51
:101D80000EF0010AD8B47FEF0EF050EF0EF00850BD
:101D90001200010E096E0250D8B4D1EF0EF0D3EF4D
:101DA0000EF0E3EF0EF00250D96EDA6ADF30E8325F
:101DB000E832070B046E070E0464E1EF0EF0E3EF68
:101DC0000EF03AEF0FF0000E096E4FEF0FF00250D9
:101DD000D96EDA6ADF30E832E832070B046E010EA2
:101DE000056E042AF6EF0EF0D8900536042EF4EFB7
:101DF0000EF00550FF0A066E0250D96EDA6ADF5007
:101E0000070B020DF3505B0FD96EDA6ADECF07F0D5
:101E1000DDCF08F007C0D9FF08C0DAFF0650DF1693
:101E20004FEF0FF00250D96EDA6ADF30E832E83255
:101E3000070B046E010E056E042A21EF0FF0D890F7
:101E40000536042E1FEF0FF00250D96EDA6ADF500C
:101E5000070B020DF3505B0FD96EDA6ADECF06F086
:101E6000DDCF07F006C0D9FF07C0DAFF0550DF124B
:101E70004FEF0FF00350046E056A0550000AD8B406
:101E800044EF0FF0E3EF0EF00450000AD8B4E7EF90
:101E90000EF0010AD8B412EF0FF0E3EF0EF0095084
:101EA00012002B342C340001A76FA751D8A45BEF8C
:101EB0000FF05DEF0FF067EF0FF0000E296E000ED0
:101EC0002A6E000E2B6E000E2C6ED4EF0FF029C080
:101ED0002DF02AC02EF02BC02FF02CC030F0200E99
:101EE00077EF0FF0D89030322F322E322D32E82E8D
:101EF00072EF0FF02D50A66F2B8EFF0E2916FF0EDE
:101F00002A16FF0E2B16000E2C16960EA75FA7BFE3
:101F10008EEF0FF08CEF0FF0A4EF0FF0A751800AB7
:101F2000970FD8B096EF0FF098EF0FF09AEF0FF0F1
:101F30005DEF0FF0D8902C322B322A322932A73F96
:101F40009AEF0FF0BCEF0FF01F0EA765AAEF0FF08E
:101F5000ACEF0FF0B4EF0FF05DEF0FF0D890293633
:101F60002A362B362C36A707A751D8A4BAEF0FF084
:101F7000BCEF0FF0AEEF0FF0A651D8B4C2EF0FF0E8
:101F8000C4EF0FF0CCEF0FF02C1E2B1E2A1E296C75
:101F9000000E2A222B222C2229C029F02AC02AF046
:101FA0002BC02BF02CC02CF01200010E0C6E0A502E
:101FB000D8A4DDEF0FF0DFEF0FF0E3EF0FF0000E2E
:101FC0000C6E49EF10F05AC00DF00A50D96EDA6A63
:101FD000DF500F0B0B6E0D500B18F80B0B180D6E1E
:101FE0000A50D96EDA6ADF38070B0B6E0B460B46C8
:101FF0000B460D500B18C70B0B180D6E0D9C0A509D
:10200000D96EDA6ADFAE02D00D8E01D00D9E59C0B6
:102010000EF00A50D96EDA6A010ED926DF500F0B86
:102020000B6E0E500B18F80B0B180E6E0A50D96E73
:10203000DA6A010ED926DF38070B0B6E0B460B460A
:102040000B460E500B18C70B0B180E6E0E9C0A5049
:10205000D96EDA6A010ED926DFAE02D00E8E01D01B
:102060000E9E0D0E026E36EC0EF00D0E026E000E80
:102070000DBE010E036EC9EC0EF00E0E026E36ECB4
:102080000EF00E0E026E000E0EBE010E036EC9ECB7
:102090000EF00C501200046E75EF10F09280B6EF47
:1020A00010F09282B6EF10F09284B6EF10F09286A4
:1020B000B6EF10F0928AB6EF10F09680B6EF10F0FF
:1020C0009682B6EF10F09684B6EF10F09384B6EFD8
:1020D00010F09386B6EF10F09382B6EF10F093886D
:1020E000B6EF10F09380B6EF10F00450026E036A62
:1020F0000350000AD8B47FEF10F0B6EF10F0025092
:10210000000AD8B44EEF10F0010AD8B451EF10F025
:10211000030AD8B454EF10F0010AD8B457EF10F006
:10212000070AD8B45AEF10F0010AD8B45DEF10F0E6
:10213000030AD8B460EF10F0010AD8B463EF10F0CE
:102140000F0AD8B466EF10F0010AD8B469EF10F0A6
:10215000030AD8B46CEF10F0010AD8B46FEF10F096
:10216000070AD8B472EF10F0B6EF10F012000A5060
:10217000D8A4BDEF10F0BFEF10F0C1EF10F01BEFCF
:1021800011F054C00CF00A50D96EDA6ADF500F0B10
:102190000B6E0C500B18F80B0B180C6E0A50D96E06
:1021A000DA6ADF38070B0B6E0B460B460B460C50FA
:1021B0000B18C70B0B180C6E0C9C0A50D96EDA6A00
:1021C000DFAE02D00C8E01D00C9E53C00DF00A5031
:1021D000D96EDA6A010ED926DF500F0B0B6E0D5047
:1021E0000B18F80B0B180D6E0A50D96EDA6A010E37
:1021F000D926DF38070B0B6E0B460B460B460D50EE
:102200000B18C70B0B180D6E0D9C0A50D96EDA6AAD
:10221000010ED926DFAE02D00D8E01D00D9E0C0E20
:10222000026E000E036EC9EC0EF00D0E026E000E73
:10223000036EC9EC0EF012000A50D8A422EF11F080
:1022400024EF11F026EF11F080EF11F058C00CF0E0
:102250000A50D96EDA6ADF500F0B0B6E0C500B1858
:10226000F80B0B180C6E0A50D96EDA6ADF38070BC0
:102270000B6E0B460B460B460C500B18C70B0B187E
:102280000C6E0C9C0A50D96EDA6ADFAE02D00C8E4E
:1022900001D00C9E57C00DF00A50D96EDA6A010EBB
:1022A000D926DF500F0B0B6E0D500B18F80B0B18C7
:1022B0000D6E0A50D96EDA6A010ED926DF38070B87
:1022C0000B6E0B460B460B460D500B18C70B0B182D
:1022D0000D6E0D9C0A50D96EDA6A010ED926DFAE5A
:1022E00002D00D8E01D00D9E0C0E026E010E036EFB
:1022F000C9EC0EF00D0E026E000E036EC9EC0EF06E
:102300001200010E076E0250D8B489EF11F08BEF66
:1023100011F093EF11F00350D8A491EF11F093EF67
:1023200011F097EF11F0000E076EDBEF11F0025085
:10233000D96EDA6A060ED926DFA2A1EF11F0A3EF5B
:1023400011F0B6EF11F0C350C4CF04F0056A04C019
:1023500005F0046A0426000E05220350D96EDA6ADD
:1023600004C0DEFF05C0DDFFDBEF11F00250D96EC7
:10237000DA6A060ED926DFB2C0EF11F0C2EF11F013
:10238000A3EF11F0C350C4CF04F0056A04C005F0F8
:10239000046A0426000E0522060E066E0534053278
:1023A0000432062ECEEF11F00350D96EDA6A04C063
:1023B000DEFF05C0DDFF07501200010E176E125040
:1023C000D8A4E5EF11F0E7EF11F0EBEF11F0000EFC
:1023D000176E33EF12F0140616EF12F012C00CF065
:1023E0001450800F0D6EC6EC12F0176E33EF12F022
:1023F00012C00CF01450C00F0D6EC6EC12F0176E28
:1024000033EF12F012C00CF01450940F0D6EC6ECA6
:1024100012F0176E33EF12F012C00CF01450D40FFC
:102420000D6EC6EC12F0176E33EF12F01350156EEE
:10243000166A1650000AD8B420EF12F033EF12F0EB
:102440001550010AD8B4EEEF11F0030AD8B4F8EF32
:1024500011F0010AD8B402EF12F0070AD8B40CEF59
:1024600012F033EF12F017501200010E076E0550F4
:10247000D8A43DEF12F03FEF12F043EF12F0000E40
:10248000076E89EF12F0C2900550D96EDA6A030E1A
:10249000D926DF50066E064606460646C050061888
:1024A000C70B0618C06E0550D96EDA6A040ED9261D
:1024B000DF50066EC0500618F80B0618C06E0550A7
:1024C000D96EDA6A050ED926DF50066E0646064634
:1024D000C2500618C30B0618C26E0550D96EDA6AD0
:1024E000050ED926DF504BEC10F09D8C9E9CF28E91
:1024F000F28C0550D96EDA6ADECF51F0DDCF52F0A2
:1025000005C002F04BEC14F005C002F028EC14F00A
:10251000C28007501200000E116E0C50D8A493EF29
:1025200012F095EF12F099EF12F0000E106EC4EF5A
:1025300012F00CC002F0010E036EC9EC0EF0000E9A
:10254000116E0C501124020F026E11C00EF00DC05E
:102550000FF00E2AAEEF12F0D8900F320E2EACEF25
:1025600012F00F50010B036EC9EC0EF0112A070E8A
:102570001164BDEF12F0BFEF12F0A1EF12F00CC02A
:102580000AF06BEC14F0106E10501200000E116E79
:102590000C50D8A4CEEF12F0D0EF12F0D4EF12F01E
:1025A000000E106EFFEF12F00CC002F0000E036E72
:1025B000C9EC0EF0000E116E0C501124020F026EC9
:1025C00011C00EF00DC00FF00E2AE9EF12F0D890F6
:1025D0000F320E2EE7EF12F00F50010B036EC9EC15
:1025E0000EF0112A070E1164F8EF12F0FAEF12F054
:1025F000DCEF12F00CC00AF06BEC14F0106E10500F
:102600001200000E076E000E066E04500510D8B4BE
:102610000CEF13F00EEF13F036EF13F0010E086E0F
:1026200016EF13F0D89004360536082A05AE1BEFD6
:1026300013F01DEF13F012EF13F0D89006360736A3
:102640000450025C05500358D8A029EF13F02BEF7B
:1026500013F030EF13F00450025E0550035A068069
:10266000D89005320432082E1DEF13F006C002F098
:1026700007C003F01200010E146E1250D8B443EFDD
:1026800013F045EF13F04DEF13F01350D8A44BEFB8
:1026900013F04DEF13F05FEF13F0000E146E6EEFBA
:1026A00013F012C00CF013C0F6FF100EF76EF86AAC
:1026B0000800F5CF0DF08BEC12F0146E132A13C046
:1026C000F6FF100EF76EF86A0800F5500009D8A45E
:1026D0006CEF13F06EEF13F051EF13F01450120083
:1026E00004500510D8B477EF13F079EF13F09DEF95
:1026F00013F0010E066E81EF13F0D8900436053604
:10270000062A05AE86EF13F088EF13F07DEF13F085
:102710000450025C05500358D8A091EF13F093EFDA
:1027200013F097EF13F00450025E0550035AD8904F
:1027300005320432062E88EF13F002C002F003C007
:1027400003F01200C60EF66E290EF76E000EF86E3C
:1027500000EE80F010EE1BF00900F5CFEEFFE55023
:10276000E150FAE1AA0EF66E290EF76E000EF86E31
:1027700000EE5BF010EE1CF00900F5CFEEFFE55027
:10278000E150FAE100EE9BF00B0EEE6AE806FDE187
:1027900000EE31F02A0EEE6AE806FDE17D907D92B2
:1027A000000173EF0DF00950D8B4D9EF13F0DBEF4F
:1027B00013F0E3EF13F00B50D8A4E1EF13F0E3EFC5
:1027C00013F0E7EF13F0000E0C6E01EF14F009C0E8
:1027D00005F00AC006F0A8EC14F00C6E09C002F077
:1027E000C4EC14F00C6EC2B2F8EF13F0FAEF13F071
:1027F000F3EF13F009C002F00BC003F081EC11F00D
:102800000C6E0C5012001850D8B409EF14F00BEFF6
:1028100014F013EF14F01B50D8A411EF14F013EFC1
:1028200014F017EF14F0000E1C6E26EF14F018C011
:1028300012F019C013F01AC014F0DDEC11F018C03A
:1028400012F01BC013F03BEC13F01C6E1C50120076
:102850000250D96EDA6A060ED926DFA032EF14F0E4
:1028600034EF14F038EF14F0C18AC1884AEF14F045
:102870000250D96EDA6A060ED926DFB042EF14F0A4
:1028800044EF14F048EF14F0C19AC1984AEF14F0E5
:10289000C19AC19812000250D96EDA6A060ED92682
:1028A000DFA255EF14F057EF14F05AEF14F0C08E7A
:1028B0006AEF14F00250D96EDA6A060ED926DFB23A
:1028C00064EF14F066EF14F069EF14F0C09E6AEF45
:1028D00014F0C08E12000A50D8A471EF14F073EFF8
:1028E00014F077EF14F0000E0B6E88EF14F00A2846
:1028F000026E010E036EC9EC0EF0030EE82EFED739
:1029000000000A28026E000E036EC9EC0EF00B6E7A
:102910000B5012001850D8A490EF14F092EF14F05E
:1029200096EF14F0000E1C6EA6EF14F018C012F013
:1029300019C013F01AC014F0DDEC11F01C6E18C0B1
:102940000CF01BC00DF08BEC12F01C6E1C50120032
:10295000010E086E0550D8A4B0EF14F0B2EF14F0D9
:10296000B6EF14F0000E086EC2EF14F006C007F0C8
:1029700007460746C2500718C30B0718C26E065019
:102980004BEC10F008501200010E036E0250D8A458
:10299000CCEF14F0CEEF14F0D2EF14F0000E036E73
:1029A000D3EF14F0C28203501200890F8A0F8B0FED
:1029B0008C0F8D0F920F930F940F950F960F0101AF
:1029C000010123330313800F810F820F830F840FC4
:1029D0002830020A121A222A323A000000050500A5
:0129E00002F4
:1029E200016EF2900150D8A4F9EF14F0FBEF14F04D
:1029F200FDEF14F0FDEF14F01200016EF2900150A1
:102A0200D8A406EF15F008EF15F00AEF15F00AEF5B
:102A120015F01200016EF2900150D8A413EF15F0D8
:102A220015EF15F017EF15F017EF15F01200016E04
:102A3200F2900150D8A420EF15F022EF15F024EF08
:102A420015F024EF15F01200F0921200F09012002F
:082A5200F29212009E9C12009A
:00000001FF
